:020000040800F2
:10000000800A002001010008B32500086B200008C9
:10001000B1250008690200085D30000800000000FA
:10002000000000000000000000000000A1290008FE
:10003000A1020008000000009F270008ED29000829
:100040001B0100081B0100081B0100081B01000820
:100050001B0100081B0100081B0100081B01000810
:100060001B0100081B0100081B0100081B01000800
:100070001B0100081B0100081B0100081B010008F0
:100080001B0100081B0100086D0100081B0100088E
:100090001B0100081B0100081B0100081B010008D0
:1000A0001B0100081B0100081B0100086D2A000845
:1000B000792A0008852A0008912A00081B010008F7
:1000C0001B0100081B0100081B0100081B010008A0
:1000D0001B010008A52F00081B0100081B010008D8
:1000E0001B0100081B0100081B010008DFF80CD0F1
:1000F00000F02AF8004800479D300008800A0020E0
:100100000648804706480047FEE7FEE7FEE7FEE7B1
:10011000FEE7FEE7FEE7FEE7FEE7FEE7692A0008E6
:10012000ED000008D2B201E000F8012B491EFBD21D
:1001300070470022F6E710B513460A4604461946F2
:10014000FFF7F0FF204610BD064C074D06E0E068C3
:1001500040F0010394E8070098471034AC42F6D30E
:10016000FFF7C8FF6432000884320008014800F03D
:10017000AABA0000E404002070B504460068816853
:10018000C943C90717D1816821F00101816000F0DE
:10019000B7FD05460AE000BF00F0B2FD401B022893
:1001A00004D920688068C043C00706D020688068F2
:1001B000C043C007F0D0002070BDA06A40F010001E
:1001C000A062E06A40F00100E062012070BD000022
:1001D000F8B500260446009600688168C943C9073F
:1001E0002DD0816841F001018160164816490068F0
:1001F000B0FBF1F000E0401E00900028FBD100F0C1
:100200007FFD054616E000BF00F07AFD401B022886
:1002100010D920688068C043C0070BD0A06A40F0A6
:100220001000A062E06A40F00100E06284F82460FF
:100230000120F8BD20688068C043C007E4D10020D9
:10024000F8BD00006000002040420F000449012278
:100250000A708880002048800821024800F04BBDC9
:100260001E000020000C0140FEE7000070B54FF4B6
:1002700080510A4C0D1101280AD00022204600F0BE
:100280003AFD012229462046BDE8704000F033BD0A
:100290000122204600F02FFD0022F3E7000C014070
:1002A0007047000010B50B4B012804D0022805D080
:1002B000032808D10BE00122102101E001225102A4
:1002C000184600F018FD04490020C87110BD012235
:1002D0005103F5E7000C01400A0000202DE9F04130
:1002E0001B4F1C4C16460D46012810D002281ED06C
:1002F00003280AD100F032F8B914012D26D00122CA
:10030000384600F0F8FCA681A570BDE8F081012018
:1003100000F024F84FF40061012D06D00122384688
:1003200000F0E9FC66816570EFE70022F7E7022044
:1003300000F014F80848012D06D00122202100F019
:10034000DAFC26812570E0E70022F7E70022D7E7F4
:10035000000801400A000020000C014010B50C4BC1
:10036000012804D0022805D0032809D10CE000227E
:10037000102102E000224FF40071184600F0BBFC8F
:1003800004490120C87110BD00224FF40051F4E768
:10039000000C01400A00002072B6FEE7354B10B594
:1003A00018461C7842780021801F022C06D0032CAE
:1003B0001DD0052C32D0062C45D00EE00379012B40
:1003C0000BD10171072A08D2DFE802F00704060901
:1003D0000B0D0F00012100E00221417110BD03212E
:1003E000FBE70421F9E70521F7E70621F5E7072AEE
:1003F00011D2DFE802F0100406080A0C0E000722F2
:100400002DE008222BE0092229E00A2227E00B2216
:1004100025E00C2223E01970597010BD072AFCD288
:10042000DFE802F0040507090B0D0F00F5E70D21C9
:10043000D3E70E21D1E70F21CFE71021CDE711211E
:10044000CBE71221C9E7072AE5D2DFE802F004056D
:10045000070A0C0E1000DEE7132200E0142242719E
:10046000D9E71522FBE71622F9E71722F7E718224A
:10047000F5E7000006000020F8B5002504460095C9
:1004800090F8240001280BD0012084F82400204695
:10049000FFF772FE2046FFF79BFE060002D050E0F9
:1004A0000220F8BDA06A20F4885040F00200A0624B
:1004B000022000F0C3FC25490968B1FBF0F04000C0
:1004C00000E0401E00900028FBD12068816841F0C8
:1004D0000801816000F014FC074608E000F010FC01
:1004E000C01B0A2803D920688068000715D420683B
:1004F00080680007F2D42068816841F004018160BF
:1005000000F0FEFB074612E000F0FAFBC01B0A28D1
:100510000DD920688068400709D5A06A20F0020044
:1005200040F01000A06284F824500120F8BD20683B
:1005300080684007E8D4A06A20F0020040F0010083
:10054000A06284F824503046F8BD0000600000200E
:1005500070470000F8B50024009490F82420254648
:10056000012A12D0012280F824204A681F23072A7A
:100570000DD20668776B521E02EB820293409F43B6
:100580000B6893401F43776319E00220F8BD0668AB
:100590000D2A0AD2376BD21F02EB820293409F438F
:1005A0000B6893401F43376309E0F76A0D3A02EB8B
:1005B000820293409F430B6893401F43F7620A688F
:1005C000072306680A2A0AD3F7680A3A02EB4202AE
:1005D00093409F438B6893401F43F76008E037695F
:1005E00002EB420293409F438B6893401F43376165
:1005F0000A68102A01D0112A20D1124B02689A42AF
:1006000017D193681B0219D4936843F400039360D5
:100610000968102912D10C490C4A0968B1FBF2F1A2
:1006200001EB8101490000E0491E00910029FBD146
:1006300004E0816A41F020018162012480F82450A5
:100640002046F8BD002401406000002040420F0019
:1006500010B5184C184920780870184800F030F888
:1006600080B2B0F50C7F01D806201DE040F6541191
:10067000884201D2052017E040F65431884201D269
:10068000042011E040F66541884201D203200BE0CE
:10069000B0F5516F01D8022006E040F6A96188420A
:1006A00001D2012000E000202070BDE8104001F0E0
:1006B00037BD00000000002001000020E4040020FD
:1006C0000068C06C704770B50446006806684568ED
:1006D000A90625D5B10723D5A16AC90603D4A16A05
:1006E00041F40071A1628168C1F34241072910D130
:1006F000217B71B9416821F020014160A06A20F49A
:100700008070A062A06AC00403D4A06A40F0010017
:10071000A0622046FFF79CFF21686FF0120008607E
:1007200028062ED570072CD5A06AC00603D4A06A6F
:1007300040F40050A06220688168C1F302310729AB
:1007400009D04168490515D48168C1F342410729A0
:1007500010D1217B71B9416821F080014160A06A0C
:1007600020F48050A062A06AC00503D4A06A40F0C3
:100770000100A0622046FFF7EBFE21686FF00C003D
:10078000086068060CD5F0070AD0A06A40F48030F3
:10079000A062204600F094F821686FF00100086024
:1007A00070BD00002DE9F0414FF0000704003D4608
:1007B0007ED0A06A002628B9E66284F8246020462C
:1007C00000F080F82046FFF7D7FCA16AC90600D4E4
:1007D00020B1A06A40F01000A06269E0A16A21F493
:1007E000885141F00201A1626268E169237B0A43FA
:1007F00047EA43010A43A1684FF48077B94209D020
:10080000012907D05FF0000194F814C0BCF1010F7A
:1008100002D00AE03946F7E7F3B1A36A43F02003B8
:10082000A362E36A43F00103E3622368D3F804C0E0
:100830002CF4694C4CEA010CC3F804C021688B68A5
:10084000DFF870C003EA0C0313438B60A168B94260
:100850000BD0012909D00CE0DFF85CC0A3690CEBD8
:1008600043330B4343F40061DFE7218A0D05A5F50F
:1008700080152168CB6A23F470032B43CB62216877
:1008800089680E4B1940914208D1E662A16A21F0B5
:10089000020141F00101A162BDE8F081A06A20F0EF
:1008A000020040F01000A062E06A40F00100E06247
:1008B0000120F1E7FDF7E1FF00E0FFFFFE0E1FFF63
:1008C0007047000000B585B00021009101910291B0
:1008D000039100681249884220D11248816941F48D
:1008E00000718161816901F400710491816941F0B5
:1008F000040181618069694600F0040004900120D0
:10090000009003200190084800F0F8F8002202212E
:10091000122000F061FA122000F050FA05B000BD7C
:1009200000240140001002400008014070B5044658
:1009300090F8240001280DD0012084F824002046DE
:10094000FFF746FC02004FF0000005D084F82400B9
:10095000104670BD022070BDA16A40F60163994344
:1009600041F48071A162224D23682249AB4218D123
:100970000E6816F4702F14D0A66A46F48016A6628C
:100980000E68760505D5A66A26F4005646F480560C
:10099000A662A66AF6040AD5E66A26F00606E662AC
:1009A00006E0A66A26F48016A6625E68E9E7E062C1
:1009B00084F824006FF0020018602068436843F058
:1009C0002003436020688368C3F34243072B05D1AB
:1009D000A84208D1096811F4702F04D0816841F44D
:1009E00080118160B4E7816841F4A001F9E700005B
:1009F000002801400424014010B590F82110002285
:100A0000022905D00421816380F82020012010BD37
:100A100001680B6823F00E030B6001680B6823F07C
:100A200001030B6090F84030C46B012101FA03F31D
:100A3000636080F8211080F82020104610BD00006F
:100A400010B590F821100024022903D004218163FD
:100A500001243DE001680A6822F00E020A60016884
:100A60000A6822F001020A601A4A0168914201D123
:100A7000012121E0174A1432914201D110211BE0DB
:100A8000144A2832914201D1891515E0114A3C32AD
:100A9000914201D189140FE00E4A5032914202D1A5
:100AA0004FF4803108E00B4A6432914202D14FF496
:100AB000801101E04FF08071064A083A516001212F
:100AC00080F82110002180F82010416B01B1884787
:100AD000204610BD0800024070B5044600F010F931
:100AE0000546601C02D004480078044400F008F970
:100AF000401BA042FAD370BD540000202DE9F84FEE
:100B0000DFF8B8910024A9F1040B23460F2709F15F
:100B1000040AABF1040EC9E00125A5402A40AA420F
:100B20007DD1674ED1F804C0ACEB0608B44532D095
:100B300014DCBCF1030F3AD009DCBCF1000F2AD061
:100B4000BCF1010F1CD0BCF1020F31D11DE0BCF192
:100B5000110F17D0BCF1120F2AD119E0B8F5881F78
:100B600019D006DCB8F5803F15D0B8F5801F1FD12D
:100B700011E0B8F5001F0ED0B8F5041F18D10AE037
:100B8000CB6815E0CB681B1D12E0CB6808330FE083
:100B9000CB680C330CE08B682BB1012B4FF00803B2
:100BA00003D0456104E0042302E0056100E0002376
:100BB000FF2A01D8064601E000F104064FEA840549
:100BC00001D9A5F12005D6F8008007FA05FC28EA2E
:100BD0000C0803FA05F548EA0508C6F800804D68D8
:100BE000ED0062D5374DAE6946F00106AE61AD69E4
:100BF00024F0030605F001050095334D06EB050CC6
:100C0000DCF80850A607360F07FA06F825EA0805AB
:100C1000DFF8B880404503D14FF0000817E044E00A
:100C2000DFF8AC80404502D14FF001080FE0DFF85B
:100C3000A480404502D14FF0020808E0DFF8988018
:100C4000404502D14FF0030801E04FF0040808FAD4
:100C500006F848EA0508CCF808804D68D9F8006025
:100C6000ED024D4601D5164300E096432E604D68D7
:100C7000DAF80060AD02554601D5164300E0964310
:100C80002E604D68DBF80060AD035D4601D516436C
:100C900000E096432E604D68DEF80060ED03754677
:100CA00001D5164300E096432E60641C0D682A4669
:100CB000E5407FF431AFBDE8F88F00000804014043
:100CC0000000111000100240000001400008014027
:100CD000000C0140001001400014014080680840F1
:100CE00000D001207047C26821EA02030A4043EAAB
:100CF0000241016170470AB1016170470904FBE7D5
:100D00000148806870470000540000200248816854
:100D1000027811448160704754000020074810B5E4
:100D2000016841F010010160032000F075F80F2008
:100D300000F006F800F024F8002010BD002002406A
:100D400070B50D4D04464FF47A712878B1FBF0F080
:100D50000A490968B1FBF0F000F0A4FB48B9102C77
:100D600007D200222146501E00F036F800206C60A9
:100D700070BD012070BD0000540000206000002004
:100D80000C4808B5816941F001018161816901F078
:100D900001010091C16941F08051C161C06900F059
:100DA000805000900448416821F0E06141F00071FA
:100DB000416008BD0010024000000140002809DB2E
:100DC00000F01F02012191404009800000F1E02065
:100DD000C0F8001170470000F0B40E4B1B680C46C1
:100DE000C3F30223C3F10705042D00D90425191DFF
:100DF000072901D2002300E0DB1E012606FA05F1D7
:100E0000491E214099409E40761E16403143F0BC59
:100E100002F025B90CED00E0064900F00702086871
:100E20004FF6FF03184040EA0220034A10430860CF
:100E3000704700000CED00E00000FA0510B5014617
:100E40000020234C012922D0022939D010291DD19C
:100E500061682268D20119D51E48C1F38342C903D3
:100E6000805C0AD561681B4AC1F34041921E515C07
:100E7000194AB2FBF1F1484301E01849484361685F
:100E8000490203D440000321B0FBF1F010BD226AF7
:100E9000C2F30121012903D1920701D5C80310BD76
:100EA000022905D1626A920702D549F6404010BD79
:100EB0000329FCD121688903F9D54FF2244010BDE4
:100EC00000F02AF96168C1F38131491C4900DBE770
:100ED000001002403C32000800127A0000093D0078
:100EE0002DE9F84305460078354CC00754D0E06939
:100EF0000026C00008D4E06940F08050E061E0695D
:100F0000012600F0805000902E480168C90512D4D7
:100F10000168804641F480710160FFF7F1FE0746E9
:100F200005E000BFFFF7ECFEC01B642823D8D8F80B
:100F30000000C005F6D5206A10F4407021D0A988C1
:100F400001F4407181421CD0206A1F49012220F423
:100F500040700A6000220A602062C00711D0FFF7CB
:100F6000CFFE074641F2883808E000BFFFF7C8FE11
:100F7000C11B414502D90320BDE8F883206A8007E0
:100F8000F4D5206A696820F44070084320621EB1DD
:100F9000E06920F08050E0612878800705D560681E
:100FA000A96820F44040084360602878C00605D551
:100FB0006068E96820F48000084360600020DBE797
:100FC0000010024000700040400442422DE9F0470A
:100FD0000F46050061D0434E306800F00700B8426C
:100FE00009D2306820F0070038433060306800F0E4
:100FF0000700B84251D128683B4C810712D5400701
:1010000003D5606840F4E06060602878000703D58D
:10101000606840F4605060606068A96820F0F0008B
:10102000084360602878C00728D06868012810D07D
:101030002168022810D0890700292EDA616821F082
:10104000030101436160FFF75BFE804641F288398E
:101050000DE021688903EFE78901EDE7FFF750FE16
:10106000A0EB0801494502D90320BDE8F08760687C
:10107000696800F00C00B0EB810FEFD1306800F030
:101080000700B8420BD9306820F0070038433060C1
:10109000306800F00700B84201D00120E5E7287869
:1010A000400705D56068E96820F4E06008436060A7
:1010B0002878000706D56068296920F4605040EA66
:1010C000C100606000F038F86168084AC1F303119C
:1010D000515CC8400649086006480068FFF730FECA
:1010E0000020C2E700200240001002404C320008FD
:1010F0006000002058000020044805490068496845
:10110000044AC1F30221515CC840704760000020CE
:10111000001002405C320008044805490068496834
:10112000044AC1F3C221515CC840704760000020EE
:10113000001002405C3200080E4A51680E4801F06F
:101140000C03042B11D0082B0FD10C48C1F383439F
:10115000C903C05C0AD55168084AC1F34041921ED8
:10116000515C054A5043B0FBF1F0704704494843D5
:10117000704700000010024000127A002A32000876
:1011800000093D002DE9F84F040070D02078C04DD3
:10119000C00749D06868C0F38100012807D068689B
:1011A000C0F38100022809D16868C00306D5286809
:1011B000800339D560680028E7D035E06068B0F575
:1011C000803F0BD010B1B0F5A02F11D0286820F4CB
:1011D00080302860286820F4802002E0286840F4ED
:1011E00080302860606890B1FFF78AFD06460AE00B
:1011F000286840F480202860F0E700BFFFF780FDFA
:10120000801B642873D828688003F7D50CE0FFF7AB
:1012100077FD064605E000BFFFF772FD801B6428DE
:10122000F0D828688003F7D420789A4E80074FF0D2
:1012300001094FF0000839D5686810F00C0F07D08D
:101240006868C0F38100022809D16868C00306D429
:101250002868800714D52069012808D110E020698A
:10126000B0B1C6F80090FFF74BFD074605E00AE174
:10127000FFF746FDC01B0228C4D828688007F7D5B1
:101280002868616920F0F80040EAC10028600DE09C
:10129000C6F80080FFF734FD074604E0FFF730FD95
:1012A000C01B022823D828688007F7D420780007BD
:1012B0002CD57948A169D9B1C0F80090FFF720FD7D
:1012C000074604E0FFF71CFDC01B02280FD8686A20
:1012D0008007F7D571484FF4FA510068B0FBF1F080
:1012E000009000BF0098411E0091FAD20EE080E00D
:1012F000C0F80080FFF704FD074604E0FFF700FD9B
:10130000C01B022875D8686A8007F7D42078400788
:1013100060D5E8690027C00008D4E86940F0805033
:10132000E861E869012700F0805000905C4801689E
:10133000C90513D40168834641F480710160FFF749
:10134000DFFC824606E000BFFFF7DAFCA0EB0A00F4
:1013500064284ED8DBF80000C005F5D5E068012808
:101360000AD008B1052813D0286A20F001002862AD
:10137000286A20F0040002E0286A40F00100286298
:10138000E06841F2883B98B1FFF7BAFC82460BE077
:10139000286A40F004002862EEE700BFFFF7B0FCC7
:1013A000A0EB0A0159455AD8286A8007F6D50CE007
:1013B000FFF7A6FC824605E0FFF7A2FCA0EB0A01BE
:1013C00059454CD8286A8007F6D41FB1E86920F047
:1013D0008050E861E06988B36968C1F3810102293E
:1013E00044D00228C6F8608004D0FFF789FC044688
:1013F00038E034E0FFF784FC074604E0FFF780FCA8
:10140000C01B02282BD828688001F7D4206AB0F5C9
:10141000803F05D16868A16820F400300843686007
:10142000D4E908010843696821F47411084368602D
:10143000C6F86090FFF764FC044606E025E000BFB4
:10144000FFF75EFC001B022809D828688001F7D549
:101450001BE000BFFFF754FC001B022802D9032049
:10146000BDE8F88F28688001F4D40EE00128F7D099
:101470006868226A00F48031914204D1616A00F404
:101480007010884201D00120EAE70020E8E7000060
:1014900000100240000042428004424260000020EE
:1014A0000070004010B5401EB0F1807F01D30120D4
:1014B00010BD4FF0E02460610F21601701F0CFFDF7
:1014C0000020A06107202061002010BD70477047F8
:1014D00010B590F83C20012A22D0012280F83C204F
:1014E000CA688C6822F4407222434C6822F48062FD
:1014F00022430C6822F4006222430C6922F48052D9
:1015000022434C6922F400522243C969002322F489
:1015100080420A4301684A6480F83C30002010BDD4
:10152000022010BD70B590F83C20012A26D001247D
:1015300080F83C40022280F83D2003685A689D688C
:1015400022F070060A6832435A600D4B02689A42D4
:1015500008D0B2F1804F05D00A4B9A4202D00A4B14
:101560009A4204D1496825F080031943916080F8BC
:101570003D40002180F83C10084670BD022070BD3F
:10158000002C0140000400400008004010B5040099
:1015900003D094F83D0010B107E0012010BD0020F9
:1015A00084F83C00204600F01FF8022084F83D003B
:1015B000211D206801F072FA012084F8460084F8A9
:1015C0003E0084F83F0084F8400084F8410084F82D
:1015D000420084F8430084F8440084F8450084F80D
:1015E0003D00002010BD000008B501681D48B1F1A4
:1015F000804F11D01C4A91421DD1C16941F00201B6
:10160000C161C069002200F00200009011461D2057
:10161000FFF7E2FB1D201FE0C16941F00101C1613C
:10162000C069002200F00100009011461C20FFF765
:10163000D3FB1C2010E00D4A914211D1C16941F049
:101640000401C161C069002200F004000090012182
:101650001E20FFF7C1FB1E20BDE80840FFF7AEBB10
:1016600008BD0000001002400004004000080040D7
:1016700090F83D10012901D001207047022180F827
:101680003D100168CA6842F00102CA6000680B4957
:10169000884208D0B0F1804F05D00949884202D075
:1016A0000849884204D1816801F00701062903D066
:1016B000016841F00101016000207047002C0140E9
:1016C000000400400008004070B5044690F83C005B
:1016D0000025012817D0012684F83C60022084F8F8
:1016E0003D002068826822F0770222F47F42826007
:1016F0000868502838D00DDC20284FD005DC90B386
:10170000102811D14AE0022070BD302846D0402870
:101710000AD13BE060282FD070280DD0B0F5805F53
:1017200003D0B0F5005F12D0012584F83D600020A1
:1017300084F83C00284670BDCB68D1E901212068BF
:1017400001F0F5F92068816841F0770109E0CB6884
:10175000D1E90121206801F0EAF92068816841F4AB
:1017600080418160E1E719E0CA684968206801F0BA
:1017700093FA5021206806E0CA684968206801F0A1
:101780009CFA6021206801F0DCF9CEE7CA6849685C
:10179000206801F081FA40212068F4E722680146C0
:1017A0001046F0E770472DE9F04104460068C6682E
:1017B00005694FF00007A90713D5B10711D5F91E28
:1017C000016101202077206880698007204602D0CF
:1017D000FFF7E8FF04E000F0C9F8204600F078F9D0
:1017E0002777680716D5700714D521686FF00400B5
:1017F0000861022020772068806910F4407F20462D
:1018000002D0FFF7CFFF04E000F0B0F8204600F070
:101810005FF92777280715D5300713D521686FF0B2
:1018200008000861042020772068C06980072046EE
:1018300002D0FFF7B7FF04E000F098F8204600F070
:1018400047F92777E80616D5F00614D521686FF01A
:1018500010000861082020772068C06910F4407FDC
:10186000204602D0FFF79EFF04E000F07FF82046FC
:1018700000F02EF92777E80708D0F00706D0216896
:101880006FF001000861204600F002FA280608D532
:10189000300606D521686FF0800008612046FFF70A
:1018A00015FE680608D5700606D521686FF0400061
:1018B0000861204600F012FAA8060AD5B00608D53D
:1018C00021686FF0200008612046BDE8F041FFF775
:1018D000FEBDBDE8F081000010B586B0002100918A
:1018E0000191029103911C4C03681C4A02211C487F
:1018F000A3420CD1936943F004039361926903916D
:1019000002F0040204928215CDE900211FE0B3F138
:10191000804F11D0134883421CD1906940F00800D9
:1019200090619069039100F0080004900120CDE9D6
:10193000000169460C480BE0936943F0040393618E
:101940009269009102F004020191CDE90312694607
:10195000FFF7D4F806B010BD002C01400010024083
:101960000008014000040040000C0140704770B5C1
:10197000044690F83C0000260D4601280FD00120B7
:1019800084F83C006AB1042A1DD0082A2FD00C2A02
:101990003FD00126002084F83C00304670BD022074
:1019A00070BD206801F0D6F82068816941F0080117
:1019B00081612068816921F0040181612068816969
:1019C0002A69114311E0206801F0ECF82068816970
:1019D00041F4006181612068816921F48061816145
:1019E000206881692A6941EA02218161D2E7206881
:1019F00001F004F92068C16941F00801C161206863
:101A0000C16921F00401C1612068C1692A691143DB
:101A100011E0206801F01EF92068C16941F40061FD
:101A2000C1612068C16921F48061C1612068C16918
:101A30002A6941EA0221C161ACE710B5040003D074
:101A400094F83D0010B107E0012010BD002084F89B
:101A50003C00204600F01EF8022084F83D00211DC5
:101A6000206801F01BF8012084F8460084F83E004D
:101A700084F83F0084F8400084F8410084F8420074
:101A800084F8430084F8440084F8450084F83D005D
:101A9000002010BD08B500680B49884212D10B48E0
:101AA000816941F4006181618069002200F4006075
:101AB000009011461B20FFF78FF9BDE808401B205E
:101AC000FFF77CB908BD0000002C01400010024067
:101AD00070B5044600683049304D88421AD12878E4
:101AE000C0B92F49088890B1401E08802D482E4A61
:101AF00000781188012801D030B10BE040F62E109B
:101B0000814207D8491C00E0491E118002E00120F3
:101B1000FEF7C8FB2549206888421BD12878C8B940
:101B20002349088898B1401E08802248224900783D
:101B3000012801D038B10DE0088840F246529042A9
:101B400008D8401C01E00888401E088002E00220FE
:101B5000FEF7A8FB2068B0F1804F10D11749088824
:101B6000A0B1401E0880164801781648012907D008
:101B7000002904D101880A2901D9491E018070BDBC
:101B80000188B1F5E97FFAD2491CF7E7BDE870405A
:101B90000320FEF787BB0000002C0140100000204E
:101BA000140000200B0000201A0000200004004058
:101BB000120000200A00002018000020160000205B
:101BC0000C0000201C00002030B500250446022235
:101BD00049B1042912D008293ED094F841000128C7
:101BE00045D0012030BD94F83E000128F9D184F899
:101BF0003E202068C26842F0020209E094F83F00EB
:101C00000128EED184F83F202068C26842F0040227
:101C1000C2600122206800F07DFF1A4920688842D6
:101C200003D1426C42F4004242642068884208D0EA
:101C3000B0F1804F05D01449884202D01349884240
:101C400004D1816801F00701062903D0016841F041
:101C500001010160284630BD94F840000128C0D140
:101C600084F840202068C26842F00802D0E784F877
:101C700041200C2901D00125ECE72068C26842F020
:101C80001002C5E7002C014000040040000800409D
:101C900010B50E490446087801280DD14888401C2B
:101CA00080B248808A88904206D30020087002469D
:101CB00008210748FFF71FF806492068884204D129
:101CC000BDE810400448FEF731BE10BD1E000020E4
:101CD000000C014000080040E404002070477047F9
:101CE00070470000F8B5016804460868CA684B6987
:101CF00010F00F0F4FF0000559D003F0010602F469
:101D00009077374365D0C10705D0D10503D5616C05
:101D100041F001016164410705D5D90703D0616C29
:101D200041F002016164810705D5D90703D0616CD8
:101D300041F004016164010707D502F0200131433D
:101D400003D0616C41F008016164616C00293AD0F4
:101D5000800604D5900602D5204601F04AF8206896
:101D60004069616CC0F38010090700D460B320465D
:101D700001F018F820684069400621D52068143029
:101D800050E8001F21F0400140E80012002AF5D180
:101D9000E06BA8B16D494163E06BFEF751FE00288E
:101DA00011D0E06B416B01B0BDE8F04008478306FD
:101DB0000FD593060DD52046BDE8F84001F019B8BF
:101DC0002046FFF78DFFF8BD2046FFF789FF6564C9
:101DD000F8BD266B2023012E7CD1C6067AD5D60607
:101DE00078D508684868009048694FF002064006B8
:101DF00040D5E16B086840680004000CE8D0A28D73
:101E00008242E5D9E085886920282DD020680C30F1
:101E100050E8001F21F4807140E80012002AF5D13B
:101E20002068143050E8001F21F0010140E8001242
:101E3000002AF5D12068143050E8001F21F040013D
:101E400040E80012002AF5D184F84230256320686A
:101E50000C3050E8001F21F0100140E80012002A69
:101E6000F5D1E06BFEF7C8FD6663A08DE18D401AE9
:101E700081B22AE0A08DE18D401A81B2E08D002868
:101E8000A6D00029A4D022680C3252E8000F20F41A
:101E9000907042E80007002FF5D12068143050E818
:101EA000002F22F0010240E80027002FF5D184F82E
:101EB0004230256320680C3050E8002F22F01002D9
:101EC00040E80023002BF5D166632046FFF707FFAB
:101ED000F8BDFFE705062BD5150629D594F8410076
:101EE0002128F5D1A068B0F5805F01D12069B0B19B
:101EF000206A411C2162216800784860E08C401E05
:101F00000004000CE084E3D12068C16821F0800166
:101F1000C1602068C16841F04001C160D8E7206A13
:101F20000088C0F308004860206A801C2062E5E752
:101F30004006CDD55006CBD5CA68204622F04002D7
:101F4000CA6084F8413000F08FF8C1E7952D000891
:101F500070B5040004D094F84100002510B106E0EB
:101F6000012070BD84F84050204600F023F8242062
:101F700084F841002068C16821F40051C160204606
:101F800000F098FF2068016921F490410161206808
:101F9000416921F02A0141612068C16841F4005182
:101FA000C1606564202084F8410084F842006563C4
:101FB000002070BD30B585B00024009401940294D7
:101FC00003940068184988422CD11848816941F46B
:101FD00080418161816901F480410491816941F00E
:101FE000040181618069124D00F0040004904FF4F7
:101FF000007000900220019003200390694628465B
:10200000FEF77CFD2815CDE90004694628460294B8
:10201000FEF774FD002202212520FEF7DDFE2520BB
:10202000FEF7CCFE05B030BD003801400010024084
:102030000008014090F84230202B01D00220704768
:1020400021B11AB10023036300F090BF0120704753
:1020500000680349884202D1024901200870704794
:1020600000380140510000207047FEE710B50E4CCB
:10207000012280212046FEF73EFE0122402120461B
:10208000FEF739FE00F046F8002280212046FEF7D8
:1020900032FE00F03FF8002240212046FEF72BFEE2
:1020A000BDE8104000F036B8000C014010B50A4CF5
:1020B000002280212046FEF71EFE012240212046FC
:1020C000FEF719FE00F026F820460122BDE8104078
:1020D0008021FEF710BE0000000C014010B50C4C32
:1020E000012280212046FEF706FE00F013F80122AF
:1020F00040212046FEF7FFFD00F00CF800224021B1
:102100002046FEF7F8FDBDE8104000F003B80000DF
:10211000000C01400320401EC0B2FCD270470000FA
:1021200070B51F48034604784178821D9B788C4225
:1021300026D10021FCB105896D1CADB20581C370AB
:10214000012623B1012B04D0022B25D10AE0867091
:1021500022E00A2D03D302218170067109E081700B
:10216000517019E04FF47A718D4215D30181052128
:102170008170547010E001818170C17041700BE07A
:1021800051B14CB95170022B02D0052B02D003E0A3
:10219000032100E0062181708078107070BD00007E
:1021A000000000203EB500241048009401940294E1
:1021B0000D498460016004730475012505614FF4C5
:1021C00060214460C161FEF7EDFA08B1FEF7E4F862
:1021D000CDE90045694605480295FEF7BBF90028A0
:1021E00001D0FEF7D9F83EBD00240140E4040020F0
:1021F0002DE9F04786B000264148009601960296E8
:102200000396816941F010018161816901F010013B
:102210000491816941F020018161816901F020010F
:102220000491816941F004018161816901F0040137
:102230000491816941F0080181618069012200F007
:102240000800DFF8C0805403049021464046FEF7A2
:1022500052FDDFF8B4A0002241F2EA015046FEF739
:102260004AFD012242F210315046FEF744FDDFF8EC
:102270009C904FF4C057002239464846FEF73BFD7C
:102280000094022501240395CDE9014669464046A4
:10229000FEF734FC4020CDE900066946029448462A
:1022A000FEF72CFC41F202008DE8310069465046F1
:1022B0000395FEF723FC42F2F820CDE900046946BD
:1022C0005046CDE90245FEF719FCF800CDE90006BD
:1022D000694602945046FEF711FCCDE90074694648
:1022E0004846CDE90245FEF709FC200203958DE83A
:1022F000510069465046FEF701FC06B0BDE8F08784
:102300000010024000100140000C01400008014094
:1023100030B591B000240F941C2108A81094FDF74B
:1023200008FF20216846FDF704FF234D214828605F
:102330004720C5E9010440F20770C5E903046C6158
:102340002846AC61FFF779FB08B1FEF725F80F943A
:102350000FA919481094FFF7E5F808B1FEF71CF82B
:102360006020089040F28330CDE909040B940C946E
:102370000D94002208A910480E94FFF7F8FA08B14E
:10238000FEF70AF800944FF40050CDE9044002949F
:1023900001940394694608480794FFF799F808B137
:1023A000FDF7FAFF05480088E8600348FFF794FA54
:1023B00011B030BD002C0140140500202400002085
:1023C00010B58EB000240794089409940A940B94D5
:1023D0001C2168460C94FDF7ACFE1F484FF080416D
:1023E00001604721C0E9011440F28261C0E9031491
:1023F0008461FFF7CBF808B1FDF7CEFF4FF48050B2
:10240000079007A91448FFF75FF908B1FDF7C4FF6B
:102410001148FFF712FB08B1FDF7BEFF0B940BA9A3
:102420000D480C94FFF77EF808B1FDF7B5FF60206A
:10243000009040F24130CDE901040422694606488B
:102440000494FFF794FA08B1FDF7A6FF0248FFF7DE
:1024500043FA0EB010BD00005C05002030B58DB011
:1024600000250795089509950A950B951C21684646
:102470000C95FDF75EFE214C1F4820604720C4E903
:10248000010540F6C310C4E903052046A561FFF726
:102490007DF808B1FDF780FF4FF48050079007A941
:1024A0001648FFF711F908B1FDF776FF1348FFF75B
:1024B000C4FA08B1FDF770FF0B950BA90F480C95F6
:1024C000FFF730F808B1FDF767FF6020009040F299
:1024D000E140CDE901050822694608480495FFF767
:1024E00046FA08B1FDF758FF05484088E060034808
:1024F000FFF7F2F90DB030BD00040040A405002044
:102500002400002010B586B00024174800940194E0
:102510000294039404941349059401604721C0E98F
:10252000011440F2E731C0E903148461FFF72EF88B
:1025300008B1FDF731FF4FF48050009069460A481A
:10254000FFF7C2F808B1FDF727FF049404A9064875
:102550000594FEF7E7FF002801D0FDF71DFF06B048
:1025600010BD000000080040EC0500200E4810B52A
:102570000C4901604FF4E1314160002181600C227F
:10258000C160C0E904128161C161FFF7E1FC08B1DB
:10259000FDF702FFBDE81040112204490248FFF791
:1025A00049BD0000003801403406002034000020FE
:1025B000FEE7FEE730B40021084B0A465FF000005A
:1025C00003EBC004401CC0B262548028F8D3491CFD
:1025D000C9B20829F2D330BC00F092B864000020E0
:1025E00030B1012807D100215FF0A70000F0BCB88E
:1025F0000021A620FAE7704710B558B1012810D184
:102600000021C02000F0B0F80021A020BDE810405B
:1026100000F0AAB80021C82000F0A6F80021A120EF
:10262000F4E710BD10B50021AE2000F09DF80021A8
:10263000084600F099F80021102000F095F80021DC
:10264000402000F091F80021812000F08DF8002159
:10265000CF2000F089F80021A12000F085F80021AA
:10266000C82000F081F80021A62000F07DF80021AC
:10267000A82000F079F800213F2000F075F8002133
:10268000D32000F071F80021084600F06DF8002119
:10269000D52000F069F80021802000F065F80021C5
:1026A000D92000F061F80021F12000F05DF8002150
:1026B000DA2000F059F80021122000F055F800212E
:1026C000DB2000F051F80021302000F04DF800210F
:1026D000202000F049F80021022000F045F80021F8
:1026E0008D2000F041F80021142000F03DF8FFF7A4
:1026F00061FF0021BDE81040AF2000F035B80000B8
:1027000070B5184E002400BF04F1B000C0B2002123
:1027100000F02AF80021084600F026F800211020D9
:1027200000F022F8FFF7A2FC782000F03BF9FFF759
:10273000D5FC402000F036F9FFF7D0FC5FF0000533
:1027400006EBC500005D00F02DF9FFF7C7FC6D1C1E
:10275000EDB2802DF4D3FFF7A9FC641CE4B2082C81
:10276000D2D370BD6400002070B50C460546FFF75B
:102770007DFC782000F016F9FFF7B0FC0CB140208A
:1027800000E0002000F00EF9FFF7A8FC284600F05A
:1027900009F9FFF7A3FCBDE87040FFF787BC70475D
:1027A00070B5214C0D46218A884203D3401A82B26B
:1027B000012102E0081A82B200210120FDF78EFDFE
:1027C000E089854203D3281A82B2012102E0401B2E
:1027D00082B200210220FDF781FD02E00120FEF718
:1027E0007BF9208961890843F8D1C820FEF774F984
:1027F00040F2D11201210320FDF770FD02E001201B
:10280000FEF76AF9A0890028F9D11420FEF764F9CF
:102810000020FDF72BFD1420FEF75EF9002060710B
:10282000BDE8704000F002B80A0000202DE9F05F1A
:10283000DFF860810125002088F80650FDF716FDBD
:10284000C820FEF749F940F2D11200210320FDF71C
:1028500045FD0AE0B8F80C0020B988F805500320BF
:10286000FDF720FD0120FEF737F998F80500002854
:10287000F0D0494E4FF4004739463046FEF72EFA65
:1028800008B988F8045040214448FEF727FA08B9EF
:1028900088F8055040F2465A524600210220FDF7C2
:1028A0001DFD40F62E1B5A4600210120FDF716FDA6
:1028B0004FF4804914E039463046FEF70FFA18B954
:1028C00025710120FDF7EEFC49463046FEF706FA79
:1028D00018B9E5700220FDF7E5FC0120FEF7FCF8D1
:1028E00098F8030044460028E5D020790028E2D07B
:1028F000C820FEF7F1F839463046FEF7EFF900251B
:10290000012801D188F8045040212448FEF7E6F957
:10291000012801D188F80550524601210220FDF717
:10292000DDFC01215A460846FDF7D8FCB8464F4663
:1029300015E041463046FEF7D1F9012802D1257154
:10294000FDF7B0FC39463046FEF7C8F9012803D13F
:10295000E5700220FDF7A6FC0120FEF7BDF8E07847
:102960000128E6D020790128E3D0C820FEF7B4F88A
:10297000C820FDF76BFCC820FEF7AEF8A5712581D5
:10298000E58165812582A5816582E5702571657186
:10299000BDE8F09F0A000020000C01400008014043
:1029A0007047000070B5104E05460024280601D57A
:1029B000012200E0002280213046FEF79CF9FFF75B
:1029C000A9FB012240213046FEF795F9FFF7A2FB53
:1029D000002240213046FEF78EF96806641C050E81
:1029E000E4B2082CE2D370BD000C0140FEF78EB9B2
:1029F00030B593B028216846FDF79BFB14210AA847
:102A0000FDF797FB002501200F9510951195010406
:102A100012958DE8230004904FF4E010CDE90810E2
:102A2000022407946846FEF7ADFB08B172B6FEE7D4
:102A30000AA90F2081E831004FF48060CDE90D052F
:102A400002210AA8FEF7C2FA08B172B6FEE74FF4F7
:102A5000004011900F940FA8FEF742FA002801D011
:102A600072B6FEE713B030BD704700000148FEF7B4
:102A70009ABE0000140500200148FEF794BE000035
:102A80005C0500200148FEF78EBE0000A405002072
:102A90000148FEF788BE0000EC050020F0B5026892
:102AA000194B1A4C1A4D4FF08047984205D0B84246
:102AB00003D0A04201D0A84203D122F070064A6898
:102AC0003243984205D0B84203D0A04201D0A84278
:102AD00003D122F44074CA6822434C6922F0800278
:102AE000224302608A68C2620A688262984201D107
:102AF00009690163012141610169C90703D00169C5
:102B000021F001010161F0BD002C014000040040F2
:102B10000008004010B501F01F030121046A99402C
:102B20008C430462016A9A401143016210BD10B5E2
:102B3000846842EA032224F47F440A4322438260E9
:102B400010BD826822F070020A4342F007018160E2
:102B50007047000030B5036A026A22F00102026287
:102B60004268846924F073050C682C4323F0020545
:102B70008B682B430A4DA8420BD123F00805CB6884
:102B800022F440722B434D6923F0040315438A69F4
:102B90002A434260846149684163036230BD00009A
:102BA000002C014030B5026A036A23F0100303626F
:102BB000436884690D6824F4E64444EA05248D687A
:102BC00022F0200242EA05120B4DA8420ED1CD6838
:102BD00022F0800242EA05124D6923F4406343EA81
:102BE00085038D6922F0400243EA850343608461D6
:102BF00049688163026230BD002C014030B5036A30
:102C0000026A22F4807202624268C46923F400738B
:102C100024F073050C682C438D6843EA05230C4DA2
:102C2000A8420ED1CD6823F4006343EA05234D6921
:102C300022F4405242EA05128D6923F4806342EA8D
:102C400005124260C4614968C163036230BD00007F
:102C5000002C014030B5046A026A22F480520262FC
:102C60004268C3690D6823F4E64343EA05238D688F
:102C700024F4005444EA0534064DA84204D14D69B9
:102C800022F4804242EA85124260C36149680164CD
:102C9000046230BD002C014010B5036A046A24F0C0
:102CA00001040462846924F0F00444EA021423F06D
:102CB0000A020A438461026210BD10B5036A046A05
:102CC00024F010040462846923F0A00324F4704407
:102CD00044EA023243EA01118261016210BD000040
:102CE0002DE9F0412A4C0D461E46218A174688429E
:102CF00003D3401A82B2012102E0081A82B20021F5
:102D00000120FDF7EBFAE089854203D3281A82B24D
:102D1000012102E0401B82B200210220FDF7DEFA11
:102D200002E00120FDF7D8FE208961890843F8D12F
:102D3000C820FDF7D1FE40F2D1152A46012103201B
:102D4000FDF7CCFA02E00120FDF7C6FEA0890028BD
:102D5000F9D11420FDF7C0FE0120FDF787FA1420F9
:102D6000FDF7BAFE2A4600210320FDF7B7FA02E07C
:102D70000120FDF7B1FEA0890028F9D1C820FDF798
:102D8000ABFE31463846BDE8F041FFF709BD000013
:102D90000A00002010B5406A0021C185C184FEF7F9
:102DA0009FFF10BD01680C3151E8002F22F4907292
:102DB00041E80023002BF5D10168143151E8002FC0
:102DC00022F0010241E80023002BF5D1016B01291B
:102DD00009D101680C3151E8002F22F0100241E8BE
:102DE0000023002BF5D1202180F84210002101633F
:102DF000704708B590F84210222901D0022008BD82
:102E000082684FF480539A4201D1016921B1816AED
:102E10009A421BD04AB10AE00268816A5268C2F342
:102E200008020A80816A891C08E0026972B102689E
:102E3000526802F07F020A70816A491C8162C18D6A
:102E4000491E0904090CC18503D01BE002685268C1
:102E5000F1E70168CA6822F02002CA600168CA6806
:102E600022F48072CA6001684A6922F001024A6154
:102E7000202180F8421000214163026B012A03D017
:102E8000FFF7E6F8002008BD016301680C3151E846
:102E9000002F22F0100241E80023002BF5D1016839
:102EA0000A68D20602D50A6849680091818DFEF74A
:102EB00016FFE7E770B5044600680169E26821F48F
:102EC0004051114301612169A068084361690843C9
:102ED0002168CA6841F20C639A430243CA602068C1
:102EE0004169A26921F44071114341611E49206882
:102EF000884202D1FEF710F901E0FEF7FDF800EB81
:102F0000C00101EB0012606864218000B2FBF0F3A5
:102F1000B3FBF1F36FF018067343B2FBF0F5B2FBAD
:102F2000F0F605EB8305322303EB0515B5FBF1F550
:102F3000B6FBF1F605F0F00505EB0615B2FBF0F671
:102F4000B2FBF0F0B0FBF1F06FF01802504306EB6B
:102F5000800003EB0010B0FBF1F0216800F00F00DF
:102F60002844886070BD000000380140816282857D
:102F7000C28500214164222180F84210016921B1FB
:102F80000168CA6842F48072CA6001684A6942F006
:102F900001024A610068C16841F02001C16000205F
:102FA000704700000148FEF79DBE00003406002077
:102FB0002DE9F041284802224178835C521C594097
:102FC000D2B20E2AF9D90278AA2A3FD1027C552A18
:102FD0003CD1C27B8A4239D11F4C30F8031F0C3CD4
:102FE00049BA218042881C4F52BA62808388BF1F31
:102FF0005BBAA380C48865BA3D80048964BA7C80CA
:10300000408946BA40F62E10BE8081421ED840F25A
:103010004657BA421AD8854218D8BC4216D80E482C
:103020000F0A113007704170110A8170C270190ABD
:1030300001714371290A8171C571210A01724472BB
:10304000310A8172C6720120BDE8F081C820FDF707
:10305000FDF80020F8E7000034000020FEE7090733
:10306000090E002804DB00F1E02080F8001470470E
:1030700000F00F0000F1E02080F8141D704702E01E
:1030800008C8121F08C1002AFAD1704770470020F3
:1030900001E001C1121F002AFBD17047FDF73EFE7F
:1030A000FFF7A6FCFFF7A4F8FFF760FAFFF77AF83E
:1030B000FFF728FAFFF784F9FFF7D0F9FFF728F9AF
:1030C0004D48FDF7D9F94D496FF0010009680861D5
:1030D0004A48FEF7CDFA6420FDF7B8F86420FDF702
:1030E000FBFCFFF79FFA0020FFF77AFA0020FFF7BA
:1030F00083FA00214248FEF767FD08214148FEF7A8
:1031000063FD04214048FEF75FFDFFF78FFB3F4E54
:103110004FF48075002229463046FDF7ECFD3C4F08
:103120006C01002221463846FDF7E5FD4FF4C870DA
:10313000FDF7D2FC29463046FDF7D5FD214638463D
:10314000FDF7D1FDDFF8CC804FF4167A4FF4AF7B5A
:103150004FF4FA7640F2A32940F2EE7540F265474B
:1031600098F800004446012812D1FFF721FF0128FA
:1031700007D1294843880288284841880088FFF7FA
:10318000AFFD00202070112225492648FEF752FF8E
:10319000FDF704F9DC22534659461046FFF7A0FD1F
:1031A0003046FDF799FCDC224C464B4640F271213B
:1031B0001046FFF795FD3046FDF78EFC7B232A462F
:1031C0002146DC20FFF78CFD3046FDF785FC2A46C2
:1031D0004FF4777340F237211046FFF781FD3046F8
:1031E000FDF77AFC2A4639463B461046FFF778FD44
:1031F0003046FDF771FCB3E7E4040020EC05002045
:1032000014050020A40500205C050020000C0140EE
:1032100000100140510000202E0000202800002056
:1032200034000020340600200102020304050607D2
:1032300008090A0B0C0D0E0F101001020203040501
:10324000060708090A0B0C0D0E0F101000000000F5
:103250000000000001020304060708090000000046
:103260000102030484320008000000206400000012
:103270007E300008E8320008640000201C0A0000CC
:103280008E30000800000000000000000000010176
:10329000010000000000000000000000000000002D
:1032A00000000000000000000807C4090000000042
:1032B00000000000000000000001020304050607F2
:1032C00008090A0B0C0D0E0F10000102030405077C
:1032D00008090A0B000000000100000010000000B7
:0832E000000000000024F400CE
:04000005080000ED02
:00000001FF
